{
  "transactions": [
    {
      "hash": "0x3966b3d9abb9498fc14abd6d998d0e493325582702b9dc02ef720c88fa2f848e",
      "transactionType": "CALL",
      "contractName": null,
      "contractAddress": "0xf17ee599e9fecab3cbf37f8d7710f3d948d5bfc5",
      "function": "setEventManager(address)",
      "arguments": [
        "0xa0B0aC4868f721cA6f579E7069CFA9FdcF6bED1f"
      ],
      "transaction": {
        "from": "0x41e4904acf2b5d93bf789ae71393edea43c58a0f",
        "to": "0xf17ee599e9fecab3cbf37f8d7710f3d948d5bfc5",
        "gas": "0x9568",
        "value": "0x0",
        "input": "0x596fd76e000000000000000000000000a0b0ac4868f721ca6f579e7069cfa9fdcf6bed1f",
        "nonce": "0x126",
        "chainId": "0xaa36a7"
      },
      "additionalContracts": [],
      "isFixedGasLimit": false
    }
  ],
  "receipts": [
    {
      "status": "0x1",
      "cumulativeGasUsed": "0x15f3f24",
      "logs": [
        {
          "address": "0xf17ee599e9fecab3cbf37f8d7710f3d948d5bfc5",
          "topics": [
            "0x5e1c88b7a6d5b160f8c22f4009d0d19366f1466f978a671bb528d21cdb8066ad",
            "0x000000000000000000000000a0b0ac4868f721ca6f579e7069cfa9fdcf6bed1f"
          ],
          "data": "0x",
          "blockHash": "0xf5b8938385b8e768a76bbc5fd31168861d6da9c4f29a18f98c091c712945c804",
          "blockNumber": "0x7f3178",
          "transactionHash": "0x3966b3d9abb9498fc14abd6d998d0e493325582702b9dc02ef720c88fa2f848e",
          "transactionIndex": "0x90",
          "logIndex": "0xad",
          "removed": false
        }
      ],
      "logsBloom": "0x00000000000100000000000000000100000000000000000000000000000000000000000000000000000000000000000000000000000000000000001000000000000000000000000000000000000000000000000000000000000000000000000000000000000000000000000000000000000000000000000000000000000100000000000000000000000000000000000000000000000000000000000000000000000000000000000000000000000000000000000000000000000000000000000000200000000000000000000000000000000000000000000000000000000000010000000000000000000000000000000000000000000040000080000000000001",
      "type": "0x2",
      "transactionHash": "0x3966b3d9abb9498fc14abd6d998d0e493325582702b9dc02ef720c88fa2f848e",
      "transactionIndex": "0x90",
      "blockHash": "0xf5b8938385b8e768a76bbc5fd31168861d6da9c4f29a18f98c091c712945c804",
      "blockNumber": "0x7f3178",
      "gasUsed": "0x6c2c",
      "effectiveGasPrice": "0xf10e905f",
      "from": "0x41e4904acf2b5d93bf789ae71393edea43c58a0f",
      "to": "0xf17ee599e9fecab3cbf37f8d7710f3d948d5bfc5",
      "contractAddress": null
    }
  ],
  "libraries": [],
  "pending": [],
  "returns": {},
  "timestamp": 1747357922,
  "chain": 11155111,
  "commit": "526e144"
}