{
  "transactions": [
    {
      "hash": "0x09fc870a0181e01a7b6540b132d69ef36821fc463fe40b469441270899684994",
      "transactionType": "CALL",
      "contractName": null,
      "contractAddress": "0xf17ee599e9fecab3cbf37f8d7710f3d948d5bfc5",
      "function": "setEventManager(address)",
      "arguments": [
        "0xa0B0aC4868f721cA6f579E7069CFA9FdcF6bED1f"
      ],
      "transaction": {
        "from": "0x41e4904acf2b5d93bf789ae71393edea43c58a0f",
        "to": "0xf17ee599e9fecab3cbf37f8d7710f3d948d5bfc5",
        "gas": "0x9568",
        "value": "0x0",
        "input": "0x596fd76e000000000000000000000000a0b0ac4868f721ca6f579e7069cfa9fdcf6bed1f",
        "nonce": "0x125",
        "chainId": "0xaa36a7"
      },
      "additionalContracts": [],
      "isFixedGasLimit": false
    }
  ],
  "receipts": [
    {
      "status": "0x1",
      "cumulativeGasUsed": "0x1ac74cb",
      "logs": [
        {
          "address": "0xf17ee599e9fecab3cbf37f8d7710f3d948d5bfc5",
          "topics": [
            "0x5e1c88b7a6d5b160f8c22f4009d0d19366f1466f978a671bb528d21cdb8066ad",
            "0x000000000000000000000000a0b0ac4868f721ca6f579e7069cfa9fdcf6bed1f"
          ],
          "data": "0x",
          "blockHash": "0x8a7f4e5932a89580593b51e19f327e16db7be215dbd3819f56c2b68c7297af3f",
          "blockNumber": "0x7f264a",
          "transactionHash": "0x09fc870a0181e01a7b6540b132d69ef36821fc463fe40b469441270899684994",
          "transactionIndex": "0xdc",
          "logIndex": "0x1b8",
          "removed": false
        }
      ],
      "logsBloom": "0x00000000000100000000000000000100000000000000000000000000000000000000000000000000000000000000000000000000000000000000001000000000000000000000000000000000000000000000000000000000000000000000000000000000000000000000000000000000000000000000000000000000000100000000000000000000000000000000000000000000000000000000000000000000000000000000000000000000000000000000000000000000000000000000000000200000000000000000000000000000000000000000000000000000000000010000000000000000000000000000000000000000000040000080000000000001",
      "type": "0x2",
      "transactionHash": "0x09fc870a0181e01a7b6540b132d69ef36821fc463fe40b469441270899684994",
      "transactionIndex": "0xdc",
      "blockHash": "0x8a7f4e5932a89580593b51e19f327e16db7be215dbd3819f56c2b68c7297af3f",
      "blockNumber": "0x7f264a",
      "gasUsed": "0x6c2c",
      "effectiveGasPrice": "0x36c9f1e7b",
      "from": "0x41e4904acf2b5d93bf789ae71393edea43c58a0f",
      "to": "0xf17ee599e9fecab3cbf37f8d7710f3d948d5bfc5",
      "contractAddress": null
    }
  ],
  "libraries": [],
  "pending": [],
  "returns": {},
  "timestamp": 1747323530,
  "chain": 11155111,
  "commit": "526e144"
}